{
  "contractName": "Subscription",
  "abi": [
    {
      "constant": true,
      "inputs": [],
      "name": "requiredGasPrice",
      "outputs": [
        {
          "name": "",
          "type": "uint256"
        }
      ],
      "payable": false,
      "stateMutability": "view",
      "type": "function"
    },
    {
      "constant": true,
      "inputs": [],
      "name": "requiredTokenAmount",
      "outputs": [
        {
          "name": "",
          "type": "uint256"
        }
      ],
      "payable": false,
      "stateMutability": "view",
      "type": "function"
    },
    {
      "constant": true,
      "inputs": [],
      "name": "requiredToAddress",
      "outputs": [
        {
          "name": "",
          "type": "address"
        }
      ],
      "payable": false,
      "stateMutability": "view",
      "type": "function"
    },
    {
      "constant": true,
      "inputs": [],
      "name": "requiredPeriodSeconds",
      "outputs": [
        {
          "name": "",
          "type": "uint256"
        }
      ],
      "payable": false,
      "stateMutability": "view",
      "type": "function"
    },
    {
      "constant": true,
      "inputs": [],
      "name": "requiredTokenAddress",
      "outputs": [
        {
          "name": "",
          "type": "address"
        }
      ],
      "payable": false,
      "stateMutability": "view",
      "type": "function"
    },
    {
      "constant": true,
      "inputs": [
        {
          "name": "",
          "type": "address"
        }
      ],
      "name": "extraNonce",
      "outputs": [
        {
          "name": "",
          "type": "uint256"
        }
      ],
      "payable": false,
      "stateMutability": "view",
      "type": "function"
    },
    {
      "constant": true,
      "inputs": [],
      "name": "author",
      "outputs": [
        {
          "name": "",
          "type": "address"
        }
      ],
      "payable": false,
      "stateMutability": "view",
      "type": "function"
    },
    {
      "constant": true,
      "inputs": [
        {
          "name": "",
          "type": "bytes32"
        }
      ],
      "name": "nextValidTimestamp",
      "outputs": [
        {
          "name": "",
          "type": "uint256"
        }
      ],
      "payable": false,
      "stateMutability": "view",
      "type": "function"
    },
    {
      "inputs": [
        {
          "name": "_toAddress",
          "type": "address"
        },
        {
          "name": "_tokenAddress",
          "type": "address"
        },
        {
          "name": "_tokenAmount",
          "type": "uint256"
        },
        {
          "name": "_periodSeconds",
          "type": "uint256"
        },
        {
          "name": "_gasPrice",
          "type": "uint256"
        }
      ],
      "payable": false,
      "stateMutability": "nonpayable",
      "type": "constructor"
    },
    {
      "payable": true,
      "stateMutability": "payable",
      "type": "fallback"
    },
    {
      "anonymous": false,
      "inputs": [
        {
          "indexed": true,
          "name": "from",
          "type": "address"
        },
        {
          "indexed": true,
          "name": "to",
          "type": "address"
        },
        {
          "indexed": false,
          "name": "tokenAddress",
          "type": "address"
        },
        {
          "indexed": false,
          "name": "tokenAmount",
          "type": "uint256"
        },
        {
          "indexed": false,
          "name": "periodSeconds",
          "type": "uint256"
        },
        {
          "indexed": false,
          "name": "gasPrice",
          "type": "uint256"
        },
        {
          "indexed": false,
          "name": "nonce",
          "type": "uint256"
        }
      ],
      "name": "ExecuteSubscription",
      "type": "event"
    },
    {
      "anonymous": false,
      "inputs": [
        {
          "indexed": true,
          "name": "from",
          "type": "address"
        },
        {
          "indexed": true,
          "name": "to",
          "type": "address"
        },
        {
          "indexed": false,
          "name": "tokenAddress",
          "type": "address"
        },
        {
          "indexed": false,
          "name": "tokenAmount",
          "type": "uint256"
        },
        {
          "indexed": false,
          "name": "periodSeconds",
          "type": "uint256"
        },
        {
          "indexed": false,
          "name": "gasPrice",
          "type": "uint256"
        },
        {
          "indexed": false,
          "name": "nonce",
          "type": "uint256"
        }
      ],
      "name": "CancelSubscription",
      "type": "event"
    },
    {
      "constant": true,
      "inputs": [
        {
          "name": "subscriptionHash",
          "type": "bytes32"
        },
        {
          "name": "gracePeriodSeconds",
          "type": "uint256"
        }
      ],
      "name": "isSubscriptionActive",
      "outputs": [
        {
          "name": "",
          "type": "bool"
        }
      ],
      "payable": false,
      "stateMutability": "view",
      "type": "function"
    },
    {
      "constant": true,
      "inputs": [
        {
          "name": "from",
          "type": "address"
        },
        {
          "name": "to",
          "type": "address"
        },
        {
          "name": "tokenAddress",
          "type": "address"
        },
        {
          "name": "tokenAmount",
          "type": "uint256"
        },
        {
          "name": "periodSeconds",
          "type": "uint256"
        },
        {
          "name": "gasPrice",
          "type": "uint256"
        },
        {
          "name": "nonce",
          "type": "uint256"
        }
      ],
      "name": "getSubscriptionHash",
      "outputs": [
        {
          "name": "",
          "type": "bytes32"
        }
      ],
      "payable": false,
      "stateMutability": "view",
      "type": "function"
    },
    {
      "constant": true,
      "inputs": [
        {
          "name": "subscriptionHash",
          "type": "bytes32"
        },
        {
          "name": "signature",
          "type": "bytes"
        }
      ],
      "name": "getSubscriptionSigner",
      "outputs": [
        {
          "name": "",
          "type": "address"
        }
      ],
      "payable": false,
      "stateMutability": "pure",
      "type": "function"
    },
    {
      "constant": true,
      "inputs": [
        {
          "name": "from",
          "type": "address"
        },
        {
          "name": "to",
          "type": "address"
        },
        {
          "name": "tokenAddress",
          "type": "address"
        },
        {
          "name": "tokenAmount",
          "type": "uint256"
        },
        {
          "name": "periodSeconds",
          "type": "uint256"
        },
        {
          "name": "gasPrice",
          "type": "uint256"
        },
        {
          "name": "nonce",
          "type": "uint256"
        },
        {
          "name": "signature",
          "type": "bytes"
        }
      ],
      "name": "isSubscriptionReady",
      "outputs": [
        {
          "name": "",
          "type": "bool"
        }
      ],
      "payable": false,
      "stateMutability": "view",
      "type": "function"
    },
    {
      "constant": false,
      "inputs": [
        {
          "name": "from",
          "type": "address"
        },
        {
          "name": "to",
          "type": "address"
        },
        {
          "name": "tokenAddress",
          "type": "address"
        },
        {
          "name": "tokenAmount",
          "type": "uint256"
        },
        {
          "name": "periodSeconds",
          "type": "uint256"
        },
        {
          "name": "gasPrice",
          "type": "uint256"
        },
        {
          "name": "nonce",
          "type": "uint256"
        },
        {
          "name": "signature",
          "type": "bytes"
        }
      ],
      "name": "cancelSubscription",
      "outputs": [
        {
          "name": "success",
          "type": "bool"
        }
      ],
      "payable": false,
      "stateMutability": "nonpayable",
      "type": "function"
    },
    {
      "constant": false,
      "inputs": [
        {
          "name": "from",
          "type": "address"
        },
        {
          "name": "to",
          "type": "address"
        },
        {
          "name": "tokenAddress",
          "type": "address"
        },
        {
          "name": "tokenAmount",
          "type": "uint256"
        },
        {
          "name": "periodSeconds",
          "type": "uint256"
        },
        {
          "name": "gasPrice",
          "type": "uint256"
        },
        {
          "name": "nonce",
          "type": "uint256"
        },
        {
          "name": "signature",
          "type": "bytes"
        }
      ],
      "name": "executeSubscription",
      "outputs": [
        {
          "name": "success",
          "type": "bool"
        }
      ],
      "payable": false,
      "stateMutability": "nonpayable",
      "type": "function"
    },
    {
      "constant": false,
      "inputs": [],
      "name": "endContract",
      "outputs": [],
      "payable": false,
      "stateMutability": "nonpayable",
      "type": "function"
    }
  ],
  "bytecode": "0x608060405234801561001057600080fd5b5060405160a08061226c833981018060405281019080805190602001909291908051906020019092919080519060200190929190805190602001909291908051906020019092919050505084600160006101000a81548173ffffffffffffffffffffffffffffffffffffffff021916908373ffffffffffffffffffffffffffffffffffffffff16021790555083600260006101000a81548173ffffffffffffffffffffffffffffffffffffffff021916908373ffffffffffffffffffffffffffffffffffffffff160217905550826003819055508160048190555080600581905550336000806101000a81548173ffffffffffffffffffffffffffffffffffffffff021916908373ffffffffffffffffffffffffffffffffffffffff1602179055505050505050612126806101466000396000f3006080604052600436106100db576000357c0100000000000000000000000000000000000000000000000000000000900463ffffffff16806310d92060146100e057806318f321a31461010b57806329d428ca146101c2578063384c3335146101ed5780636b40bba1146102445780636f264b2e1461026f57806371d22d4d146102c6578063a3d53d18146103a1578063a6c3e6b9146103f8578063ae702ba41461044f578063bb6e7de9146104a2578063c8147865146104b9578063d3c576cd14610580578063d933c06614610689578063ff59bff814610764575b600080fd5b3480156100ec57600080fd5b506100f56107a9565b6040518082815260200191505060405180910390f35b34801561011757600080fd5b506101806004803603810190808035600019169060200190929190803590602001908201803590602001908080601f01602080910402602001604051908101604052809392919081815260200183838082843782019150505050505091929192905050506107af565b604051808273ffffffffffffffffffffffffffffffffffffffff1673ffffffffffffffffffffffffffffffffffffffff16815260200191505060405180910390f35b3480156101ce57600080fd5b506101d76107dc565b6040518082815260200191505060405180910390f35b3480156101f957600080fd5b506102026107e2565b604051808273ffffffffffffffffffffffffffffffffffffffff1673ffffffffffffffffffffffffffffffffffffffff16815260200191505060405180910390f35b34801561025057600080fd5b50610259610808565b6040518082815260200191505060405180910390f35b34801561027b57600080fd5b5061028461080e565b604051808273ffffffffffffffffffffffffffffffffffffffff1673ffffffffffffffffffffffffffffffffffffffff16815260200191505060405180910390f35b3480156102d257600080fd5b50610387600480360381019080803573ffffffffffffffffffffffffffffffffffffffff169060200190929190803573ffffffffffffffffffffffffffffffffffffffff169060200190929190803573ffffffffffffffffffffffffffffffffffffffff16906020019092919080359060200190929190803590602001909291908035906020019092919080359060200190929190803590602001908201803590602001919091929391929390505050610834565b604051808215151515815260200191505060405180910390f35b3480156103ad57600080fd5b506103e2600480360381019080803573ffffffffffffffffffffffffffffffffffffffff169060200190929190505050610af8565b6040518082815260200191505060405180910390f35b34801561040457600080fd5b5061040d610b10565b604051808273ffffffffffffffffffffffffffffffffffffffff1673ffffffffffffffffffffffffffffffffffffffff16815260200191505060405180910390f35b34801561045b57600080fd5b50610488600480360381019080803560001916906020019092919080359060200190929190505050610b35565b604051808215151515815260200191505060405180910390f35b3480156104ae57600080fd5b506104b7610bbd565b005b3480156104c557600080fd5b50610562600480360381019080803573ffffffffffffffffffffffffffffffffffffffff169060200190929190803573ffffffffffffffffffffffffffffffffffffffff169060200190929190803573ffffffffffffffffffffffffffffffffffffffff16906020019092919080359060200190929190803590602001909291908035906020019092919080359060200190929190505050610c52565b60405180826000191660001916815260200191505060405180910390f35b34801561058c57600080fd5b5061066f600480360381019080803573ffffffffffffffffffffffffffffffffffffffff169060200190929190803573ffffffffffffffffffffffffffffffffffffffff169060200190929190803573ffffffffffffffffffffffffffffffffffffffff16906020019092919080359060200190929190803590602001909291908035906020019092919080359060200190929190803590602001908201803590602001908080601f0160208091040260200160405190810160405280939291908181526020018383808284378201915050505050509192919290505050610ee5565b604051808215151515815260200191505060405180910390f35b34801561069557600080fd5b5061074a600480360381019080803573ffffffffffffffffffffffffffffffffffffffff169060200190929190803573ffffffffffffffffffffffffffffffffffffffff169060200190929190803573ffffffffffffffffffffffffffffffffffffffff16906020019092919080359060200190929190803590602001909291908035906020019092919080359060200190929190803590602001908201803590602001919091929391929390505050611a0b565b604051808215151515815260200191505060405180910390f35b34801561077057600080fd5b506107936004803603810190808035600019169060200190929190505050611ed5565b6040518082815260200191505060405180910390f35b60055481565b60006107d4826107c28560001916611eed565b60001916611fa890919063ffffffff16565b905092915050565b60035481565b600160009054906101000a900473ffffffffffffffffffffffffffffffffffffffff1681565b60045481565b600260009054906101000a900473ffffffffffffffffffffffffffffffffffffffff1681565b60008060006108488c8c8c8c8c8c8c610c52565b91506108868286868080601f0160208091040260200160405190810160405280939291908181526020018383808284378201915050505050506107af565b90508b73ffffffffffffffffffffffffffffffffffffffff168173ffffffffffffffffffffffffffffffffffffffff16141515610951576040517f08c379a000000000000000000000000000000000000000000000000000000000815260040180806020018281038252602f8152602001807f496e76616c6964205369676e617475726520666f72207375627363726970746981526020017f6f6e2063616e63656c6c6174696f6e000000000000000000000000000000000081525060400191505060405180910390fd5b3373ffffffffffffffffffffffffffffffffffffffff168c73ffffffffffffffffffffffffffffffffffffffff161415156109f4576040517f08c379a00000000000000000000000000000000000000000000000000000000081526004018080602001828103825260208152602001807f6d73672e73656e646572206973206e6f7420746865207375627363726962657281525060200191505060405180910390fd5b7fffffffffffffffffffffffffffffffffffffffffffffffffffffffffffffffff600660008460001916600019168152602001908152602001600020819055508a73ffffffffffffffffffffffffffffffffffffffff168c73ffffffffffffffffffffffffffffffffffffffff167f51a97a25211c2be9b0b1dd64ee1de490cdb047390e6eba984e6a1d126e6ac4568c8c8c8c8c604051808673ffffffffffffffffffffffffffffffffffffffff1673ffffffffffffffffffffffffffffffffffffffff1681526020018581526020018481526020018381526020018281526020019550505050505060405180910390a36001925050509998505050505050505050565b60076020528060005260406000206000915090505481565b6000809054906101000a900473ffffffffffffffffffffffffffffffffffffffff1681565b60007fffffffffffffffffffffffffffffffffffffffffffffffffffffffffffffffff600660008560001916600019168152602001908152602001600020541415610b835760009050610bb7565b610bb182600660008660001916600019168152602001908152602001600020546120a090919063ffffffff16565b42111590505b92915050565b6000809054906101000a900473ffffffffffffffffffffffffffffffffffffffff1673ffffffffffffffffffffffffffffffffffffffff163373ffffffffffffffffffffffffffffffffffffffff16141515610c1857600080fd5b6000809054906101000a900473ffffffffffffffffffffffffffffffffffffffff1673ffffffffffffffffffffffffffffffffffffffff16ff5b600060197f01000000000000000000000000000000000000000000000000000000000000000260007f010000000000000000000000000000000000000000000000000000000000000002308a8a8a8a8a8a8a604051602001808b7effffffffffffffffffffffffffffffffffffffffffffffffffffffffffffff19167effffffffffffffffffffffffffffffffffffffffffffffffffffffffffffff191681526001018a7effffffffffffffffffffffffffffffffffffffffffffffffffffffffffffff19167effffffffffffffffffffffffffffffffffffffffffffffffffffffffffffff191681526001018973ffffffffffffffffffffffffffffffffffffffff1673ffffffffffffffffffffffffffffffffffffffff166c010000000000000000000000000281526014018873ffffffffffffffffffffffffffffffffffffffff1673ffffffffffffffffffffffffffffffffffffffff166c010000000000000000000000000281526014018773ffffffffffffffffffffffffffffffffffffffff1673ffffffffffffffffffffffffffffffffffffffff166c010000000000000000000000000281526014018673ffffffffffffffffffffffffffffffffffffffff1673ffffffffffffffffffffffffffffffffffffffff166c010000000000000000000000000281526014018581526020018481526020018381526020018281526020019a50505050505050505050506040516020818303038152906040526040518082805190602001908083835b602083101515610eab5780518252602082019150602081019050602083039250610e86565b6001836020036101000a03801982511681845116808217855250505050505090500191505060405180910390209050979650505050505050565b600080600080610efa8c8c8c8c8c8c8c610c52565b9250610f0683866107af565b91508b73ffffffffffffffffffffffffffffffffffffffff168b73ffffffffffffffffffffffffffffffffffffffff1614151515610fac576040517f08c379a00000000000000000000000000000000000000000000000000000000081526004018080602001828103825260208152602001807f43616e206e6f742073656e6420746f207468652066726f6d206164647265737381525060200191505060405180910390fd5b8b73ffffffffffffffffffffffffffffffffffffffff168273ffffffffffffffffffffffffffffffffffffffff1614151561104f576040517f08c379a00000000000000000000000000000000000000000000000000000000081526004018080602001828103825260118152602001807f496e76616c6964205369676e617475726500000000000000000000000000000081525060200191505060405180910390fd5b6006600084600019166000191681526020019081526020016000205442101515156110e2576040517f08c379a00000000000000000000000000000000000000000000000000000000081526004018080602001828103825260198152602001807f537562736372697074696f6e206973206e6f742072656164790000000000000081525060200191505060405180910390fd5b600073ffffffffffffffffffffffffffffffffffffffff16600160009054906101000a900473ffffffffffffffffffffffffffffffffffffffff1673ffffffffffffffffffffffffffffffffffffffff16148061118c5750600160009054906101000a900473ffffffffffffffffffffffffffffffffffffffff1673ffffffffffffffffffffffffffffffffffffffff168b73ffffffffffffffffffffffffffffffffffffffff16145b151561119757600080fd5b600073ffffffffffffffffffffffffffffffffffffffff16600260009054906101000a900473ffffffffffffffffffffffffffffffffffffffff1673ffffffffffffffffffffffffffffffffffffffff1614806112415750600260009054906101000a900473ffffffffffffffffffffffffffffffffffffffff1673ffffffffffffffffffffffffffffffffffffffff168a73ffffffffffffffffffffffffffffffffffffffff16145b151561124c57600080fd5b6000600354148061125e575060035489145b151561126957600080fd5b6000600454148061127b575060045488145b151561128657600080fd5b60006005541480611298575060055487145b15156112a357600080fd5b6112b688426120a090919063ffffffff16565b60066000856000191660001916815260200190815260200160002081905550600760008d73ffffffffffffffffffffffffffffffffffffffff1673ffffffffffffffffffffffffffffffffffffffff168152602001908152602001600020548611156113615785600760008e73ffffffffffffffffffffffffffffffffffffffff1673ffffffffffffffffffffffffffffffffffffffff168152602001908152602001600020819055505b8973ffffffffffffffffffffffffffffffffffffffff166370a082318c6040518263ffffffff167c0100000000000000000000000000000000000000000000000000000000028152600401808273ffffffffffffffffffffffffffffffffffffffff1673ffffffffffffffffffffffffffffffffffffffff168152602001915050602060405180830381600087803b1580156113fc57600080fd5b505af1158015611410573d6000803e3d6000fd5b505050506040513d602081101561142657600080fd5b810190808051906020019092919050505090508973ffffffffffffffffffffffffffffffffffffffff166323b872dd8d8d8c6040518463ffffffff167c0100000000000000000000000000000000000000000000000000000000028152600401808473ffffffffffffffffffffffffffffffffffffffff1673ffffffffffffffffffffffffffffffffffffffff1681526020018373ffffffffffffffffffffffffffffffffffffffff1673ffffffffffffffffffffffffffffffffffffffff1681526020018281526020019350505050602060405180830381600087803b15801561151057600080fd5b505af1158015611524573d6000803e3d6000fd5b505050506040513d602081101561153a57600080fd5b8101908080519060200190929190505050508973ffffffffffffffffffffffffffffffffffffffff166370a082318c6040518263ffffffff167c0100000000000000000000000000000000000000000000000000000000028152600401808273ffffffffffffffffffffffffffffffffffffffff1673ffffffffffffffffffffffffffffffffffffffff168152602001915050602060405180830381600087803b1580156115e757600080fd5b505af11580156115fb573d6000803e3d6000fd5b505050506040513d602081101561161157600080fd5b81019080805190602001909291905050508982011415156116c0576040517f08c379a00000000000000000000000000000000000000000000000000000000081526004018080602001828103825260268152602001807f45524332302042616c616e636520646964206e6f74206368616e676520636f7281526020017f726563746c79000000000000000000000000000000000000000000000000000081525060400191505060405180910390fd5b6116c86120bc565b1515611762576040517f08c379a00000000000000000000000000000000000000000000000000000000081526004018080602001828103825260358152602001807f537562736372697074696f6e3a3a65786563757465537562736372697074696f81526020017f6e205472616e7366657246726f6d206661696c6564000000000000000000000081525060400191505060405180910390fd5b8a73ffffffffffffffffffffffffffffffffffffffff168c73ffffffffffffffffffffffffffffffffffffffff167f96d296c945eee0618d3cc6f435f4d59f14bcefd708eab22c3de30df20b1347938c8c8c8c8c604051808673ffffffffffffffffffffffffffffffffffffffff1673ffffffffffffffffffffffffffffffffffffffff1681526020018581526020018481526020018381526020018281526020019550505050505060405180910390a360008711156119f8578973ffffffffffffffffffffffffffffffffffffffff166323b872dd8d338a6040518463ffffffff167c0100000000000000000000000000000000000000000000000000000000028152600401808473ffffffffffffffffffffffffffffffffffffffff1673ffffffffffffffffffffffffffffffffffffffff1681526020018373ffffffffffffffffffffffffffffffffffffffff1673ffffffffffffffffffffffffffffffffffffffff1681526020018281526020019350505050602060405180830381600087803b1580156118f357600080fd5b505af1158015611907573d6000803e3d6000fd5b505050506040513d602081101561191d57600080fd5b8101908080519060200190929190505050506119376120bc565b15156119f7576040517f08c379a00000000000000000000000000000000000000000000000000000000081526004018080602001828103825260438152602001807f537562736372697074696f6e3a3a65786563757465537562736372697074696f81526020017f6e204661696c656420746f20706179206761732061732066726f6d206163636f81526020017f756e74000000000000000000000000000000000000000000000000000000000081525060600191505060405180910390fd5b5b6001935050505098975050505050505050565b6000806000806000611a228e8e8e8e8e8e8e610c52565b9350611a608488888080601f0160208091040260200160405190810160405280939291908181526020018383808284378201915050505050506107af565b92508b73ffffffffffffffffffffffffffffffffffffffff1663dd62ed3e8f306040518363ffffffff167c0100000000000000000000000000000000000000000000000000000000028152600401808373ffffffffffffffffffffffffffffffffffffffff1673ffffffffffffffffffffffffffffffffffffffff1681526020018273ffffffffffffffffffffffffffffffffffffffff1673ffffffffffffffffffffffffffffffffffffffff16815260200192505050602060405180830381600087803b158015611b3157600080fd5b505af1158015611b45573d6000803e3d6000fd5b505050506040513d6020811015611b5b57600080fd5b810190808051906020019092919050505091508b73ffffffffffffffffffffffffffffffffffffffff166370a082318f6040518263ffffffff167c0100000000000000000000000000000000000000000000000000000000028152600401808273ffffffffffffffffffffffffffffffffffffffff1673ffffffffffffffffffffffffffffffffffffffff168152602001915050602060405180830381600087803b158015611c0957600080fd5b505af1158015611c1d573d6000803e3d6000fd5b505050506040513d6020811015611c3357600080fd5b81019080805190602001909291905050509050600073ffffffffffffffffffffffffffffffffffffffff16600160009054906101000a900473ffffffffffffffffffffffffffffffffffffffff1673ffffffffffffffffffffffffffffffffffffffff161480611cf05750600160009054906101000a900473ffffffffffffffffffffffffffffffffffffffff1673ffffffffffffffffffffffffffffffffffffffff168d73ffffffffffffffffffffffffffffffffffffffff16145b8015611da25750600073ffffffffffffffffffffffffffffffffffffffff16600260009054906101000a900473ffffffffffffffffffffffffffffffffffffffff1673ffffffffffffffffffffffffffffffffffffffff161480611da15750600260009054906101000a900473ffffffffffffffffffffffffffffffffffffffff1673ffffffffffffffffffffffffffffffffffffffff168c73ffffffffffffffffffffffffffffffffffffffff16145b5b8015611dbc575060006003541480611dbb57506003548b145b5b8015611dd6575060006004541480611dd557506004548a145b5b8015611df0575060006005541480611def575060055489145b5b8015611e2757508d73ffffffffffffffffffffffffffffffffffffffff168373ffffffffffffffffffffffffffffffffffffffff16145b8015611e5f57508c73ffffffffffffffffffffffffffffffffffffffff168e73ffffffffffffffffffffffffffffffffffffffff1614155b8015611e865750600660008560001916600019168152602001908152602001600020544210155b8015611ea45750611ea0898c6120a090919063ffffffff16565b8210155b8015611ec25750611ebe898c6120a090919063ffffffff16565b8110155b9450505050509998505050505050505050565b60066020528060005260406000206000915090505481565b60008160405160200180807f19457468657265756d205369676e6564204d6573736167653a0a333200000000815250601c0182600019166000191681526020019150506040516020818303038152906040526040518082805190602001908083835b602083101515611f745780518252602082019150602081019050602083039250611f4f565b6001836020036101000a03801982511681845116808217855250505050505090500191505060405180910390209050919050565b60008060008060418551141515611fc25760009350612097565b6020850151925060408501519150606085015160001a9050601b8160ff161015611fed57601b810190505b601b8160ff16141580156120055750601c8160ff1614155b156120135760009350612097565b600186828585604051600081526020016040526040518085600019166000191681526020018460ff1660ff1681526020018360001916600019168152602001826000191660001916815260200194505050505060206040516020810390808403906000865af115801561208a573d6000803e3d6000fd5b5050506020604051035193505b50505092915050565b600081830190508281101515156120b357fe5b80905092915050565b600080600090503d600081146120d957602081146120e2576120ee565b600191506120ee565b60206000803e60005191505b506000811415915050905600a165627a7a72305820588005efc18e94a81ae2ce11df390bc25ae61882b3b1fb99eb8bea365ba922550029",
  "source": "pragma solidity ^0.4.24;\n\n/*\n  Super Simple Token Subscriptions - https://tokensubscription.com\n  //// Breakin Through @ University of Wyoming ////\n  Austin Thomas Griffith - https://austingriffith.com\n  Building on previous works:\n    https://github.com/austintgriffith/token-subscription\n    https://gist.github.com/androolloyd/0a62ef48887be00a5eff5c17f2be849a\n    https://media.consensys.net/subscription-services-on-the-blockchain-erc-948-6ef64b083a36\n    https://medium.com/gitcoin/technical-deep-dive-architecture-choices-for-subscriptions-on-the-blockchain-erc948-5fae89cabc7a\n    https://github.com/ethereum/EIPs/pull/1337\n    https://github.com/ethereum/EIPs/blob/master/EIPS/eip-1077.md\n    https://github.com/gnosis/safe-contracts\n  Earlier Meta Transaction Demo:\n    https://github.com/austintgriffith/bouncer-proxy\n  Huge thanks, as always, to OpenZeppelin for the rad contracts:\n */\n\nimport \"./ECDSA.sol\";\nimport \"./SafeMath.sol\";\nimport \"./ERC20.sol\";\n\n\ncontract Subscription {\n    using ECDSA for bytes32;\n    using SafeMath for uint256;\n\n    //who deploys the contract\n    address public author;\n\n    // the publisher may optionally deploy requirements for the subscription\n    // so only meta transactions that match the requirements can be relayed\n    address public requiredToAddress;\n    address public requiredTokenAddress;\n    uint256 public requiredTokenAmount;\n    uint256 public requiredPeriodSeconds;\n    uint256 public requiredGasPrice;\n\n    // similar to a nonce that avoids replay attacks this allows a single execution\n    // every x seconds for a given subscription\n    // subscriptionHash  => next valid block number\n    mapping(bytes32 => uint256) public nextValidTimestamp;\n\n    //we'll use a nonce for each from but because transactions can go through\n    //multiple times, we allow anything but users can use this as a signal for\n    //uniqueness\n    mapping(address => uint256) public extraNonce;\n\n    event ExecuteSubscription(\n        address indexed from, //the subscriber\n        address indexed to, //the publisher\n        address tokenAddress, //the token address paid to the publisher\n        uint256 tokenAmount, //the token amount paid to the publisher\n        uint256 periodSeconds, //the period in seconds between payments\n        uint256 gasPrice, //the amount of tokens to pay relayer (0 for free)\n        uint256 nonce // to allow multiple subscriptions with the same parameters\n    );\n\n    event CancelSubscription(\n        address indexed from, //the subscriber\n        address indexed to, //the publisher\n        address tokenAddress, //the token address paid to the publisher\n        uint256 tokenAmount, //the token amount paid to the publisher\n        uint256 periodSeconds, //the period in seconds between payments\n        uint256 gasPrice, //the amount of tokens to pay relayer (0 for free)\n        uint256 nonce // to allow multiple subscriptions with the same parameters\n    );\n\n    constructor(\n        address _toAddress,\n        address _tokenAddress,\n        uint256 _tokenAmount,\n        uint256 _periodSeconds,\n        uint256 _gasPrice\n    ) public {\n        requiredToAddress=_toAddress;\n        requiredTokenAddress=_tokenAddress;\n        requiredTokenAmount=_tokenAmount;\n        requiredPeriodSeconds=_periodSeconds;\n        requiredGasPrice=_gasPrice;\n        author=msg.sender;\n    }\n\n    // this is used by external smart contracts to verify on-chain that a\n    // particular subscription is \"paid\" and \"active\"\n    // there must be a small grace period added to allow the publisher\n    // or desktop miner to execute\n    function isSubscriptionActive(\n        bytes32 subscriptionHash,\n        uint256 gracePeriodSeconds\n    )\n        external\n        view\n        returns (bool)\n    {\n        if(nextValidTimestamp[subscriptionHash]==uint256(-1)){\n          return false;\n        }\n        return (block.timestamp <=\n                nextValidTimestamp[subscriptionHash].add(gracePeriodSeconds)\n        );\n    }\n\n    // given the subscription details, generate a hash and try to kind of follow\n    // the eip-191 standard and eip-1077 standard from my dude @avsa\n    function getSubscriptionHash(\n        address from, //the subscriber\n        address to, //the publisher\n        address tokenAddress, //the token address paid to the publisher\n        uint256 tokenAmount, //the token amount paid to the publisher\n        uint256 periodSeconds, //the period in seconds between payments\n        uint256 gasPrice, //the amount of tokens or eth to pay relayer (0 for free)\n        uint256 nonce // to allow multiple subscriptions with the same parameters\n    )\n        public\n        view\n        returns (bytes32)\n    {\n        return keccak256(\n            abi.encodePacked(\n                byte(0x19),\n                byte(0),\n                address(this),\n                from,\n                to,\n                tokenAddress,\n                tokenAmount,\n                periodSeconds,\n                gasPrice,\n                nonce\n        ));\n    }\n\n    //ecrecover the signer from hash and the signature\n    function getSubscriptionSigner(\n        bytes32 subscriptionHash, //hash of subscription\n        bytes signature //proof the subscriber signed the meta trasaction\n    )\n        public\n        pure\n        returns (address)\n    {\n        return subscriptionHash.toEthSignedMessageHash().recover(signature);\n    }\n\n    //check if a subscription is signed correctly and the timestamp is ready for\n    // the next execution to happen\n    function isSubscriptionReady(\n        address from, //the subscriber\n        address to, //the publisher\n        address tokenAddress, //the token address paid to the publisher\n        uint256 tokenAmount, //the token amount paid to the publisher\n        uint256 periodSeconds, //the period in seconds between payments\n        uint256 gasPrice, //the amount of the token to incentivize the relay network\n        uint256 nonce,// to allow multiple subscriptions with the same parameters\n        bytes signature //proof the subscriber signed the meta trasaction\n    )\n        external\n        view\n        returns (bool)\n    {\n        bytes32 subscriptionHash = getSubscriptionHash(\n            from, to, tokenAddress, tokenAmount, periodSeconds, gasPrice, nonce\n        );\n        address signer = getSubscriptionSigner(subscriptionHash, signature);\n        uint256 allowance = ERC20(tokenAddress).allowance(from, address(this));\n        uint256 balance = ERC20(tokenAddress).balanceOf(from);\n\n        return (\n            ( requiredToAddress == address(0) || to == requiredToAddress ) &&\n            ( requiredTokenAddress == address(0) || tokenAddress == requiredTokenAddress ) &&\n            ( requiredTokenAmount == 0 || tokenAmount == requiredTokenAmount ) &&\n            ( requiredPeriodSeconds == 0 || periodSeconds == requiredPeriodSeconds ) &&\n            ( requiredGasPrice == 0 || gasPrice == requiredGasPrice ) &&\n            signer == from &&\n            from != to &&\n            block.timestamp >= nextValidTimestamp[subscriptionHash] &&\n            allowance >= tokenAmount.add(gasPrice) &&\n            balance >= tokenAmount.add(gasPrice)\n        );\n    }\n\n    // you don't really need this if you are using the approve/transferFrom method\n    // because you control the flow of tokens by approving this contract address,\n    // but to make the contract an extensible example for later user I'll add this\n    function cancelSubscription(\n        address from, //the subscriber\n        address to, //the publisher\n        address tokenAddress, //the token address paid to the publisher\n        uint256 tokenAmount, //the token amount paid to the publisher\n        uint256 periodSeconds, //the period in seconds between payments\n        uint256 gasPrice, //the amount of tokens or eth to pay relayer (0 for free)\n        uint256 nonce, //to allow multiple subscriptions with the same parameters\n        bytes signature //proof the subscriber signed the meta trasaction\n    )\n        external\n        returns (bool success)\n    {\n        bytes32 subscriptionHash = getSubscriptionHash(\n            from, to, tokenAddress, tokenAmount, periodSeconds, gasPrice, nonce\n        );\n        address signer = getSubscriptionSigner(subscriptionHash, signature);\n\n        //the signature must be valid\n        require(signer == from, \"Invalid Signature for subscription cancellation\");\n\n        //make sure it's the subscriber\n        require(from == msg.sender, 'msg.sender is not the subscriber');\n\n        //nextValidTimestamp should be a timestamp that will never\n        //be reached during the brief window human existence\n        nextValidTimestamp[subscriptionHash]=uint256(-1);\n\n        emit CancelSubscription(\n            from, to, tokenAddress, tokenAmount, periodSeconds, gasPrice, nonce\n        );\n\n        return true;\n    }\n\n    // execute the transferFrom to pay the publisher from the subscriber\n    // the subscriber has full control by approving this contract an allowance\n    function executeSubscription(\n        address from, //the subscriber\n        address to, //the publisher\n        address tokenAddress, //the token address paid to the publisher\n        uint256 tokenAmount, //the token amount paid to the publisher\n        uint256 periodSeconds, //the period in seconds between payments\n        uint256 gasPrice, //the amount of tokens or eth to pay relayer (0 for free)\n        uint256 nonce, // to allow multiple subscriptions with the same parameters\n        bytes signature //proof the subscriber signed the meta trasaction\n    )\n        public\n        returns (bool success)\n    {\n        // make sure the subscription is valid and ready\n        // pulled this out so I have the hash, should be exact code as \"isSubscriptionReady\"\n        bytes32 subscriptionHash = getSubscriptionHash(\n            from, to, tokenAddress, tokenAmount, periodSeconds, gasPrice, nonce\n        );\n        address signer = getSubscriptionSigner(subscriptionHash, signature);\n\n        //make sure they aren't sending to themselves\n        require(to != from, \"Can not send to the from address\");\n        //the signature must be valid\n        require(signer == from, \"Invalid Signature\");\n        //timestamp must be equal to or past the next period\n        require(\n            block.timestamp >= nextValidTimestamp[subscriptionHash],\n            \"Subscription is not ready\"\n        );\n\n        // if there are requirements from the deployer, let's make sure\n        // those are met exactly\n        require( requiredToAddress == address(0) || to == requiredToAddress );\n        require( requiredTokenAddress == address(0) || tokenAddress == requiredTokenAddress );\n        require( requiredTokenAmount == 0 || tokenAmount == requiredTokenAmount );\n        require( requiredPeriodSeconds == 0 || periodSeconds == requiredPeriodSeconds );\n        require( requiredGasPrice == 0 || gasPrice == requiredGasPrice );\n\n        //increment the timestamp by the period so it wont be valid until then\n        nextValidTimestamp[subscriptionHash] = block.timestamp.add(periodSeconds);\n\n        //check to see if this nonce is larger than the current count and we'll set that for this 'from'\n        if(nonce > extraNonce[from]){\n          extraNonce[from] = nonce;\n        }\n\n        // now, let make the transfer from the subscriber to the publisher\n        uint256 startingBalance = ERC20(tokenAddress).balanceOf(to);\n        ERC20(tokenAddress).transferFrom(from,to,tokenAmount);\n        require(\n          (startingBalance+tokenAmount) == ERC20(tokenAddress).balanceOf(to),\n          \"ERC20 Balance did not change correctly\"\n        );\n\n\n        require(\n            checkSuccess(),\n            \"Subscription::executeSubscription TransferFrom failed\"\n        );\n\n        emit ExecuteSubscription(\n            from, to, tokenAddress, tokenAmount, periodSeconds, gasPrice, nonce\n        );\n\n        // it is possible for the subscription execution to be run by a third party\n        // incentivized in the terms of the subscription with a gasPrice of the tokens\n        //  - pay that out now...\n        if (gasPrice > 0) {\n            //the relayer is incentivized by a little of the same token from\n            // the subscriber ... as far as the subscriber knows, they are\n            // just sending X tokens to the publisher, but the publisher can\n            // choose to send Y of those X to a relayer to run their transactions\n            // the publisher will receive X - Y tokens\n            // this must all be setup in the constructor\n            // if not, the subscriber chooses all the params including what goes\n            // to the publisher and what goes to the relayer\n            ERC20(tokenAddress).transferFrom(from, msg.sender, gasPrice);\n            require(\n                checkSuccess(),\n                \"Subscription::executeSubscription Failed to pay gas as from account\"\n            );\n        }\n\n        return true;\n    }\n\n    // because of issues with non-standard erc20s the transferFrom can always return false\n    // to fix this we run it and then check the return of the previous function:\n    //    https://github.com/ethereum/solidity/issues/4116\n    /**\n     * Checks the return value of the previous function. Returns true if the previous function\n     * function returned 32 non-zero bytes or returned zero bytes.\n     */\n    function checkSuccess(\n    )\n        private\n        pure\n        returns (bool)\n    {\n        uint256 returnValue = 0;\n\n        /* solium-disable-next-line security/no-inline-assembly */\n        assembly {\n            // check number of bytes returned from last function call\n            switch returndatasize\n\n            // no bytes returned: assume success\n            case 0x0 {\n                returnValue := 1\n            }\n\n            // 32 bytes returned: check if non-zero\n            case 0x20 {\n                // copy 32 bytes into scratch space\n                returndatacopy(0x0, 0x0, 0x20)\n\n                // load those bytes into returnValue\n                returnValue := mload(0x0)\n            }\n\n            // not sure what was returned: dont mark as success\n            default { }\n        }\n\n        return returnValue != 0;\n    }\n\n    //we would like a way for the author to completly destroy the subscription\n    // contract to prevent further transfers\n    function endContract()\n        external\n    {\n      require(msg.sender==author);\n      selfdestruct(author);\n    }\n\n    // let's go ahead and revert any ETH send directly to the contract too\n    function () public payable {\n       revert ();\n    }\n}\n",
  "sourcePath": "/Users/derekalia/Desktop/subscription-test/ethereum/contracts/Subscription.sol",
  "compiler": {
    "name": "solc",
    "version": "0.4.24+commit.e67f0147.Emscripten.clang"
  },
  "schemaVersion": "2.0.1",
  "updatedAt": "2018-11-05T18:38:54.358Z"
}